:020000000F28C7
:10000800FE00030EF0000408F1000A08F200831253
:100018007F08F300D0281028830112285130831656
:100028008F0083129F0183169F011F088F39103894
:100038009F001F1407308312990083168501051449
:10004800831285010C3083169200043083129200CB
:1000580006309300103098008316811110308312F7
:1000680095009012101290151015901480308F0082
:100078008E018B018B120B110C1083160C148B172D
:100088000B1783129F171F13F3309F051F144C285B
:100098008312A701A801023028024630031927025B
:1000A8000318CD289F149F1857281E08A6008316EA
:1000B8001E088312A50002302602293003192502E2
:1000C800031C6828851069288514A901AA01003035
:1000D8002A020830031929020318BA28290AA0009D
:1000E8000130A1000030A2007C280310A10DA20D50
:1000F800A00B7928A2302105A30000302205A40016
:1001080023082404031D9A281C309500A630831266
:10011800A000A00B8D28103083129500D6308312D2
:10012800A00096289728A00B9528AC281C3083128D
:100138009500D6308312A000A128A228A00BA028E1
:10014800103083129500A6308312A000A00BAA28B5
:1001580001308312A9070318AA0A0030AA07003041
:100168002A02083003192902031C722885188510F1
:1001780010146300831210100130A7070318A80A8F
:100188000030A80702302802463003192702031C52
:1001980056281F1063000F280C1CD6280C1080301E
:1001A8008F008E017308FF0072088A0071088400AE
:0A01B800700E8300FE0E7E0E09009B
:02400E00D4F0EC
:00000001FF
